{
  "contractName": "AdvancedStorage",
  "abi": [
    {
      "constant": true,
      "inputs": [
        {
          "internalType": "uint256",
          "name": "",
          "type": "uint256"
        }
      ],
      "name": "arr",
      "outputs": [
        {
          "internalType": "uint256",
          "name": "",
          "type": "uint256"
        }
      ],
      "payable": false,
      "stateMutability": "view",
      "type": "function"
    },
    {
      "constant": false,
      "inputs": [
        {
          "internalType": "uint256",
          "name": "data",
          "type": "uint256"
        }
      ],
      "name": "set_arr",
      "outputs": [],
      "payable": false,
      "stateMutability": "nonpayable",
      "type": "function"
    },
    {
      "constant": true,
      "inputs": [
        {
          "internalType": "uint256",
          "name": "index",
          "type": "uint256"
        }
      ],
      "name": "getOne_arr",
      "outputs": [
        {
          "internalType": "uint256",
          "name": "",
          "type": "uint256"
        }
      ],
      "payable": false,
      "stateMutability": "view",
      "type": "function"
    },
    {
      "constant": true,
      "inputs": [],
      "name": "getAll_arr",
      "outputs": [
        {
          "internalType": "uint256[]",
          "name": "",
          "type": "uint256[]"
        }
      ],
      "payable": false,
      "stateMutability": "view",
      "type": "function"
    },
    {
      "constant": true,
      "inputs": [],
      "name": "getLength_arr",
      "outputs": [
        {
          "internalType": "uint256",
          "name": "",
          "type": "uint256"
        }
      ],
      "payable": false,
      "stateMutability": "view",
      "type": "function"
    }
  ],
  "bytecode": "0x608060405234801561001057600080fd5b50610294806100206000396000f3fe608060405234801561001057600080fd5b50600436106100575760003560e01c806371e5ee5f1461005c57806384c196491461009e5780639eb5ce54146100e0578063bc29a0b1146100fe578063f51cb2781461015d575b600080fd5b6100886004803603602081101561007257600080fd5b810190808035906020019092919050505061018b565b6040518082815260200191505060405180910390f35b6100ca600480360360208110156100b457600080fd5b81019080803590602001909291905050506101ac565b6040518082815260200191505060405180910390f35b6100e86101cc565b6040518082815260200191505060405180910390f35b6101066101d8565b6040518080602001828103825283818151815260200191508051906020019060200280838360005b8381101561014957808201518184015260208101905061012e565b505050509050019250505060405180910390f35b6101896004803603602081101561017357600080fd5b8101908080359060200190929190505050610230565b005b6000818154811061019857fe5b906000526020600020016000915090505481565b60008082815481106101ba57fe5b90600052602060002001549050919050565b60008080549050905090565b6060600080548060200260200160405190810160405280929190818152602001828054801561022657602002820191906000526020600020905b815481526020019060010190808311610212575b5050505050905090565b60008190806001815401808255809150509060018203906000526020600020016000909192909190915055505056fea265627a7a72315820ec3cc0f4d8fb51041c0432f66db33fedb4a9b240b5a87ebb5a391e1a2acc76b164736f6c63430005100032",
  "source": "\r\npragma solidity ^0.5.0;\r\n\r\ncontract AdvancedStorage{\r\n    \r\n    uint[] public arr;\r\n    \r\n    function set_arr(uint data) public{\r\n        arr.push(data);\r\n    }\r\n    \r\n    function getOne_arr(uint index) view public returns(uint)\r\n    {\r\n        return arr[index];\r\n    }\r\n    \r\n    function getAll_arr() view public returns(uint[] memory)\r\n    {\r\n        return arr;\r\n    }\r\n    \r\n    function getLength_arr() view public returns(uint)\r\n    {\r\n        return arr.length;\r\n    }\r\n}",
  "sourcePath": "D:/DAPP/5.Advanced Storage (Rinkeby Testnet)/contracts/advancedstorage.sol",
  "compiler": {
    "name": "solc",
    "version": "0.5.16+commit.9c3226ce.Emscripten.clang"
  },
  "schemaVersion": "3.4.0",
  "updatedAt": "2021-05-07T11:25:14.171Z",
  "networkType": "ethereum",
  "devdoc": {
    "methods": {}
  },
  "userdoc": {
    "methods": {}
  }
}